{
  "contractName": "TokenExchange",
  "abi": [
    {
      "inputs": [
        {
          "internalType": "contract GrtToken",
          "name": "_grtToken",
          "type": "address"
        },
        {
          "internalType": "uint256",
          "name": "_exchangeRate",
          "type": "uint256"
        }
      ],
      "stateMutability": "nonpayable",
      "type": "constructor"
    },
    {
      "inputs": [],
      "name": "grtToken",
      "outputs": [
        {
          "internalType": "contract GrtToken",
          "name": "",
          "type": "address"
        }
      ],
      "stateMutability": "view",
      "type": "function",
      "constant": true
    },
    {
      "inputs": [],
      "name": "buyTokens",
      "outputs": [],
      "stateMutability": "payable",
      "type": "function",
      "payable": true
    },
    {
      "inputs": [
        {
          "internalType": "uint256",
          "name": "_grtTokenAmount",
          "type": "uint256"
        }
      ],
      "name": "sellTokens",
      "outputs": [],
      "stateMutability": "payable",
      "type": "function",
      "payable": true
    }
  ],
  "bytecode": "0x608060405234801561001057600080fd5b5060405161049f38038061049f8339818101604052604081101561003357600080fd5b810190808051906020019092919080519060200190929190505050816000806101000a81548173ffffffffffffffffffffffffffffffffffffffff021916908373ffffffffffffffffffffffffffffffffffffffff1602179055508060018190555050506103f9806100a66000396000f3fe6080604052600436106100345760003560e01c80636c11bcd314610039578063d0febe4c14610067578063e6db5d0a14610071575b600080fd5b6100656004803603602081101561004f57600080fd5b81019080803590602001909291905050506100b2565b005b61006f6102c6565b005b34801561007d57600080fd5b5061008661039f565b604051808273ffffffffffffffffffffffffffffffffffffffff16815260200191505060405180910390f35b8060008054906101000a900473ffffffffffffffffffffffffffffffffffffffff1673ffffffffffffffffffffffffffffffffffffffff166370a08231336040518263ffffffff1660e01b8152600401808273ffffffffffffffffffffffffffffffffffffffff16815260200191505060206040518083038186803b15801561013a57600080fd5b505afa15801561014e573d6000803e3d6000fd5b505050506040513d602081101561016457600080fd5b8101908080519060200190929190505050101561018057600080fd5b6000600154828161018d57fe5b04905060008054906101000a900473ffffffffffffffffffffffffffffffffffffffff1673ffffffffffffffffffffffffffffffffffffffff166323b872dd3330856040518463ffffffff1660e01b8152600401808473ffffffffffffffffffffffffffffffffffffffff1681526020018373ffffffffffffffffffffffffffffffffffffffff1681526020018281526020019350505050602060405180830381600087803b15801561023f57600080fd5b505af1158015610253573d6000803e3d6000fd5b505050506040513d602081101561026957600080fd5b8101908080519060200190929190505050503373ffffffffffffffffffffffffffffffffffffffff166108fc829081150290604051600060405180830381858888f193505050501580156102c1573d6000803e3d6000fd5b505050565b60006001543402905060008054906101000a900473ffffffffffffffffffffffffffffffffffffffff1673ffffffffffffffffffffffffffffffffffffffff1663a9059cbb33836040518363ffffffff1660e01b8152600401808373ffffffffffffffffffffffffffffffffffffffff16815260200182815260200192505050602060405180830381600087803b15801561036057600080fd5b505af1158015610374573d6000803e3d6000fd5b505050506040513d602081101561038a57600080fd5b81019080805190602001909291905050505050565b60008054906101000a900473ffffffffffffffffffffffffffffffffffffffff168156fea26469706673582212201b6d8a432e05fc50b7728ab2f7985d89cd348cb66cfd5124427b89003a5f011064736f6c634300060c0033",
  "source": "pragma solidity ^0.6.0;\r\n\r\nimport './GrtToken.sol';\r\n\r\ncontract TokenExchange {\r\n  GrtToken public grtToken;\r\n\r\n  uint private exchangeRate;\r\n\r\n  constructor(GrtToken _grtToken, uint _exchangeRate) public {\r\n    grtToken = _grtToken;\r\n    exchangeRate = _exchangeRate;\r\n  }\r\n\r\n  function buyTokens() payable public {\r\n    uint amount = msg.value * exchangeRate;\r\n    grtToken.transfer(msg.sender, amount);\r\n  }\r\n\r\n  function sellTokens(uint _grtTokenAmount) payable public {\r\n    require(grtToken.balanceOf(msg.sender) >= _grtTokenAmount);\r\n    uint ethAmount = _grtTokenAmount / exchangeRate;\r\n    grtToken.transferFrom(msg.sender, address(this), _grtTokenAmount);\r\n    msg.sender.transfer(ethAmount);\r\n  }\r\n}\r\n",
  "sourcePath": "C:/Users/jdink/Desktop/development/erc20-tokenexchange/contracts/TokenExchange.sol",
  "compiler": {
    "name": "solc",
    "version": "0.6.12+commit.27d51765.Emscripten.clang"
  },
  "schemaVersion": "3.2.2",
  "updatedAt": "2020-08-09T06:38:52.908Z",
  "networkType": "ethereum",
  "devdoc": {
    "kind": "dev",
    "methods": {},
    "version": 1
  },
  "userdoc": {
    "kind": "user",
    "methods": {},
    "version": 1
  }
}